:100000000C948C010C94A9010C94A9010C94A901E5
:100010000C94A9010C94A9010C94A9010C94A901B8
:100020000C94A9010C94A9010C94A9010C94A901A8
:100030000C94A9010C94A9010C94A9010C94A90198
:100040000C94A9010C94A9010C94A9010C94A90188
:100050000C94A9010C94A9010C94A9010C94A90178
:100060000C94A9010C94A901AE2000B0C800104066
:10007000813FA1A6A83FA4D300D5F0D922DA12DB94
:10008000208D14BC5F9C60A4618462B6639664B0EA
:10009000659F66B5678968A969FFFF0000000000D9
:1000A000000000002F000000000700070000147F80
:1000B000147F1400242A7F2A12006264081323008C
:1000C000364955225000000503000000001C224163
:1000D00000000041221C000014083E08140008081B
:1000E0003E0808000000A06000000808080808009A
:1000F0000060600000002010080402003E514945E5
:100100003E0000427F4000004261514946002141CB
:10011000454B31001814127F100027454545390022
:100120003C4A4949300001710905030036494949F3
:100130003600064949291E000036360000000056E8
:100140003600000008142241000014141414140096
:100150000041221408000201510906003249595198
:100160003E007C1211127C007F49494936003E4115
:10017000414122007F4141221C007F494949410001
:100180007F09090901003E4149497A007F080808B2
:100190007F0000417F4100002040413F01007F0877
:1001A000142241007F40404040007F020C027F004B
:1001B0007F0408107F003E4141413E007F0909094C
:1001C00006003E4151215E007F091929460046493B
:1001D0004949310001017F0101003F4040403F009B
:1001E0001F2040201F003F4038403F006314081488
:1001F0006300070870080700615149454300007F0C
:1002000041410000552A552A55000041417F000018
:10021000040201020400404040404000000102048A
:1002200000002054545478007F4844443800384437
:1002300044442000384444487F0038545454180043
:10024000087E0901020018A4A4A47C007F0804040D
:10025000780000447D4000004080847D00007F10D5
:100260002844000000417F4000007C04180478000E
:100270007C0804047800384444443800FC242424D6
:10028000180018242418FC007C08040408004854B2
:1002900054542000043F444020003C4040207C0057
:1002A0001C2040201C003C4030403C0044281028CA
:1002B00044001CA0A0A07C004464544C44000008EE
:1002C0007741000000006300000000417708000053
:1002D0000804080804003A4040207A003D404040AD
:1002E0003D002154545479007D1211127D0039448F
:1002F000444439003D4242423D00020502000000F4
:100300007E01495573007C1010081C0030482048BD
:1003100030005C6202625C0011241FBECFEFD8E0A7
:10032000DEBFCDBF11E0A0E0B1E0E2E0F4E102C049
:1003300005900D92A233B107D9F721E0A2E3B1E015
:1003400001C01D92A533B207E1F70E94CF050C94BE
:10035000FF090C9400001F93CF93DF93EC0180ED15
:100360000E946A0580E00E94920581ED0E946A0564
:100370000E94A505982F929597701AE08F70919F13
:10038000800D112488830E94A505982F92959F7057
:100390008F70919F800D112489830E94A505982F4D
:1003A000929593708F70919F800D11248A830E9483
:1003B000A5050E94A505982F92959F708F70919F1B
:1003C000800D11248B830E94A50584FB992790F949
:1003D00091959A708F70980F9C830E94BA05982F00
:1003E00092959F708F70919F800D112490E08053A3
:1003F000984F8D839E83DF91CF911F910C948E0532
:10040000CF93DF93EC0180ED0E946A0580E00E94AB
:10041000920588816AE00E94DF068295807F892BA1
:100420000E94920589816AE00E94DF068295807FA2
:10043000892B0E9492058A816AE00E94DF068295DC
:10044000807F892B0E94920581E00E9492058B811A
:100450006AE00E94DF068295807F892B0E949205C8
:100460008C816AE00E94DF068295807F892B0E9442
:1004700092058D81805D6AE00E94DF068295807F13
:10048000892B0E949205DF91CF910C948E050F93DA
:100490001F93CF93DF9300D00F92CDB7DEB7898340
:1004A000192F062F88E70E946A0580E00E949205B6
:1004B00089818A831B83EA81FB81E00FF11D8F0113
:1004C0008A819B818017910749F40F900F900F90BC
:1004D000DF91CF911F910F910C948E05EA81FB81E2
:1004E0008191EA83FB830E949205EACF0F931F93C9
:1004F000CF93DF9300D000D0CDB7DEB789839A8346
:100500008B0188E70E946A0580E40E949205898138
:100510008B839A819C83EB81FC810E0F1F1F8B8143
:100520009C818017910751F40F900F900F900F90BE
:10053000DF91CF911F910F910C948E05EB81FC817F
:100540008191EB83FC830E949205E9CFCF93DF93E7
:1005500000D000D0CDB7DEB7813890F4683080F499
:1005600080933201609333016055698391E29A83ED
:100570008B838FE78C8364E0CE0101960E94470253
:100580000F900F900F900F90DF91CF910895982FBB
:10059000990F890F880F0C94A602CF93DF9300D098
:1005A00000D0CDB7DEB7109232011092330180EB4C
:1005B000898381E28A831B828FE78C8364E0CE018A
:1005C00001960E9447020F900F900F900F90DF91BD
:1005D000CF9108951F93CF93DF93CDB7DEB7C25865
:1005E000D1090FB6F894DEBF0FBECDBFFE01319624
:1005F00080E8DF011D928A95E9F710E0CF57DF4FC1
:10060000E883C158D040CE57DF4FF883C258D0405E
:10061000612F80E00E94A60260E870E0CF57DF4FB4
:100620008881C158D040CE57DF4F9881C258D04002
:100630000E9476021F5F183059F70E94CD02CE57F4
:10064000DF4F0FB6F894DEBF0FBECDBFDF91CF9165
:100650001F910895CF93DF93CDB7DEB76D970FB697
:10066000F894DEBF0FBECDBF8D8F0E946105E8E616
:10067000F0E0DE0111969E01245E3F4FCD014491D2
:100680004D933196A217B307D1F72D8D2C8F6CE1C6
:100690000E9447026D960FB6F894DEBF0FBECDBF25
:1006A000DF91CF910C94EA02CF93DF930F92CDB7F5
:1006B000DEB7813059F487EA898361E0CE01019683
:1006C0000E9447020F90DF91CF91089586EAF4CF00
:1006D000CF93DF930F92CDB7DEB7813059F48EEA16
:1006E000898361E0CE0101960E9447020F90DF915D
:1006F000CF9108958FEAF4CFCF93DF9300D0CDB799
:10070000DEB791E899838A8362E0CE0101960E9468
:1007100047020F900F90DF91CF9108956F927F92D3
:100720008F929F92AF92BF92CF92DF92EF92FF9201
:100730000F931F93CF93DF93CDB7DEB76E970FB6AE
:10074000F894DEBF0FBECDBFE82F8A3009F431C167
:100750000CF0D4C080913201E83009F4EBC0E930EC
:1007600009F40FC1409132014A3708F0B2C0E032BB
:100770000CF4AFC080EE8E0F682F70E0E4E8F0E07C
:10078000E4916E1771050CF039C1E82F80910001DA
:10079000823009F035C1842F90E00C9681389105A4
:1007A00008F097C08E01035F1F4F26E0E29FF00123
:1007B0001124CF0185569F4F3C017E0199E1E90E3E
:1007C000F11CD801ED8EFE8E61E070E01D921D924D
:1007D000F301449120E030E0C901842E912C6D0199
:1007E000F2E0CF1AD108A401082E02C05595479512
:1007F0000A94E2F740FF1AC0F601A080B180AB0175
:10080000022E02C0440F551F0A94E2F7A42AB52A0B
:10081000A9014395FB0102C0EE0FFF1F4A95E2F7C5
:10082000AF01AE2AB52AF601A082B18201962E5FF1
:100830003F4F88309105B9F6FFEF6F1A7F0AAE156A
:10084000BF0521F66E012FEFC21AD20AD601F801B8
:100850005601808132968D938D93EE15FF05C9F771
:100860006CE070E0C5010E947602809133018F54E4
:10087000898F81E28A8F809132018B8F8FE78C8FF5
:1008800064E08D8D9E8D0E944702F80181810E5F8C
:100890001F4FF60180838183F2E0CF0ED11C0E152D
:1008A0001F0599F76CE070E0C5010E947602809107
:1008B00033018055898F80913201845F8B8F64E092
:1008C0008D8D9E8D0E94470280913201845F8093BE
:1008D00032016E960FB6F894DEBF0FBECDBFDF912A
:1008E000CF911F910F91FF90EF90DF90CF90BF902D
:1008F000AF909F908F907F906F900895609133019B
:1009000080E0ED3009F02ECF6E960FB6F894DEBF82
:100910000FBECDBFDF91CF911F910F91FF90EF9050
:10092000DF90CF90BF90AF909F908F907F906F900F
:100930000C94A6029091000160913301891B0E94E2
:10094000C70280E20E948E038091320190910001E3
:1009500060913301891B6E960FB6F894DEBF0FBE0F
:10096000CDBFDF91CF911F910F91FF90EF90DF905E
:10097000CF90BF90AF909F908F907F906F900C948E
:10098000C7029091000124E0929FA0011124609180
:100990003301FA01E80FF11D25E130E0241B350B8E
:1009A000E217F30720F4990F990F890FD4CF8EE740
:1009B000ABCF80913301873008F08BCF609100017D
:1009C000680F80913201C7CFF901ED57FF4FE491D5
:1009D000E052FF0B6E177F0719F4FC018491D5CE0E
:1009E0005F5F252F30E0220F331FC9018C579F4FC7
:1009F000FC01A491AF3F41F7EFEFC8CE50E0F1CF3B
:100A000026E0E29FF0011124E556FF4FDE0111962A
:100A10009E01295F3F4FCD0144914D933196A2171E
:100A2000B307D1F766E070E00E9476028091320150
:100A30008A5F4DCF809300010895CF93DF9300D05C
:100A4000CDB7DEB728EC31EA29833A838230A9F0AA
:100A500040F481110DC062E0CE0101960E94470270
:100A600002C0833081F00F900F90DF91CF910895F5
:100A700080EC898380EA8A83EECF80EC898362E010
:100A8000CE010196EBCF80EA8A83F9CFCF93DF9333
:100A9000EC018881811103C0DF91CF9108952196E7
:100AA0000E948E03F6CFCF93DF93EC01FE01849179
:100AB000811103C0DF91CF91089521960E948E038A
:100AC000F5CF1092B90080E28093B80084E0809363
:100AD000BC00089594EA9093BC0020EA30E0909125
:100AE000BC0097FF0CC08093BB0084E88093BC00DF
:100AF00080EA90E02091BC0027FF0AC008952150B1
:100B0000304069F780913401816080933401089509
:100B1000019781F7809134018260F7CF84E9809357
:100B2000BC0008958093BB0084E88093BC0080EAF9
:100B300090E02091BC0027FD08950197D1F78091A6
:100B40003401846080933401089584EC8093BC0068
:100B500080EA90E02091BC0027FF03C08091BB0099
:100B600008950197B9F7809134018860809334012A
:100B700080E0089584E88093BC0080EA90E02091B2
:100B8000BC0027FF03C08091BB0008950197B9F70F
:100B90008091340180618093340180E00895CDB765
:100BA000DEB7E7970FB6F894DEBF0FBECDBF2FEFCD
:100BB0003EE944E2215030404040E1F700C00000EF
:100BC0003B9A439854985C9A0E9461058FEA0E9470
:100BD0002A0339E0CE018096FC01232F11922A9539
:100BE000E9F72BE0DE011C96FD01422F11924A9598
:100BF000E9F7AE01495E5F4FFA0111923A95E9F7C4
:100C00007E01FFEFEF1AFF0AF70111922A95E9F72B
:100C100000E010E099249A94D82EC92EBA2EAB2E5B
:100C20004EAB5FABCE0189960E94AB0189B184FBCC
:100C3000882484F87724739484FD772484FD9FC0EE
:100C4000439A89A51F928F938AA51F928F938BA594
:100C50001F928F9327E031E03F932F931F9289E0FB
:100C60008F93CF92DF920E94F80649E050E06EA980
:100C70007FA98D2D9C2D0E94EB060FB6F894DEBF48
:100C80000FBECDBF892BB9F082E00E941A0562E049
:100C900082E00E94C7028D2D9C2D0E94460581E0B6
:100CA0000E941A0589E0ED2DFC2DAEA9BFA9019087
:100CB0000D928A95E1F78FA58F938EA58F938DA5C1
:100CC0001F928F938CA51F928F9326E131E03F9363
:100CD0002F931F928BE08F93AF92BF920E94F806E2
:100CE0004BE050E0B7018B2D9A2D0E94EB060FB61A
:100CF000F894DEBF0FBECDBF892B99F081E00E9432
:100D00001A0565E085E00E94C7028B2D9A2D0E948E
:100D100046058BE0EB2DFA2DD70101900D928A95B7
:100D2000E1F7971002C0811020C081E00E941A05EF
:100D3000811039C086E0E1E0F1E0DE01D09601905B
:100D40000D928A95E1F70F5F033018F01F5F137063
:100D500000E060E082E11330A1F40E94C70285E266
:100D600091E00E94460599249394FFEF20E732E03A
:100D7000F15020403040E1F700C0000053CF4398CD
:100D800060CF0E94C70285E291E00E94460560E0C4
:100D900082E10E94C702F701E10FF11DE10FF11D91
:100DA00087A590A9DECF60E082E10E94C70285E2BC
:100DB00091E00E94460500E010E0912CD6CF9927E3
:100DC00078E0880F991F961708F0961B881F7A9570
:100DD000C9F780950895FB01DC0104C08D91019055
:100DE000801921F441505040C8F7881B990B089591
:100DF000AEE0B0E0EEEFF6E00C94D80986E08C832C
:100E00002B893C8929833A838D899E89813030E8FA
:100E1000930710F080E090E801978D839E83AE01E8
:100E2000475E5F4F6F89788DCE0101960E942B0738
:100E30004D815E8157FD0BC0EF81F8854E175F072E
:100E40000CF4FA012B893C89E20FF31F10822E96D5
:100E5000E2E00C94F409ABE0B0E0E1E3F7E00C94DD
:100E6000CB096C017B018A01FC0116821782838108
:100E700081FFDFC13AE0532EF6012381F70123FD04
:100E8000859123FF81917F01811509F437C1853256
:100E900039F423FD959123FF91917F01953229F437
:100EA000B60190E00E943209E7CF30E0912C612C2E
:100EB000712CF0E27F1640F59B32D9F058F4903255
:100EC000D1F09332F1F09E3291F576FC17C168941F
:100ED00076F806C09D3291F09033C1F4689470F8B2
:100EE000F70123FD959123FF91917F019111E1CFAE
:100EF00028C0689471F8689472F8F2CF689473F817
:100F0000EFCF689474F8ECCF77FC1BC080ED890FAD
:100F10008A30C8F676FE05C0959C800D1124982E67
:100F2000DFCF659C800D1124682E7F2AD9CF9C3697
:100F300019F4689477F8D4CF9C3409F445C09836F6
:100F400079F2892F8F7D8554833008F43FC0933622
:100F500009F461C0933709F46BC0933509F477C085
:100F6000943619F0993609F0A4C0F80177FE9AC0BA
:100F700061917191819191918F01272D2F76822E10
:100F800097FF04C00E94C009689487F82AE030E007
:100F90005E014FEFA41AB40AA5010E946209782EDF
:100FA0007A1886FECFC0882D8E7F791408F0C9C0CC
:100FB00084FE1DC182FC11C12EEE8222B92C882D27
:100FC000867809F4CBC00EC131E08ACF311501F12A
:100FD000085F1F4F8FE3898321E0822E912C5E01F1
:100FE0002FEFA21AB20AE89477F873FC03C08614B4
:100FF0009104F0F18114910409F041C0611409F4E5
:101000003BCFB60180E290E00E9432096A94F6CFAD
:101010000C5F1F4FDFCFF801808189830E5F1F4F68
:1010200091E0892E912C5E01FFEFAF1ABF0ADBCF52
:10103000F801A190B1908F01692D70E076FC02C09B
:101040006FEF7FEFC5010E9427094C01CCCFF8015B
:10105000A190B1908F01692D70E076FC02C06FEF16
:101060007FEFC5010E941C094C01689477F8BDCF41
:10107000B60180E290E00E9432096A94B8CFF5018F
:1010800077FC859177FE81915F01B60190E00E9427
:10109000320981E0611001C080E0681AF1E08F1A26
:1010A0009108A8CF61917191872F880F880B982F95
:1010B00063CF9537C9F4872CE89484F82AE030E0B0
:1010C000F80187FE39C061917191819191918F01F1
:1010D0005E01FFEFAF1ABF0AA5010E946209782ED8
:1010E0007A18E89487F85DCF872D897F882E90370E
:1010F00099F058F49835A9F09F36D9F0F601868119
:1011000097812B96EFE00C94E7099837B9F774FCB8
:1011100005C020E130E0D4CF689484F8689482F868
:10112000F8CF74FE03C0E72DE6608E2E20E132E09A
:10113000C7CF28E030E0C4CF6191719180E090E0AA
:10114000C6CF882EB72C84FE3ACFFE01E70DF11DE5
:101150008081803309F044C049EE842283FC0EC0B4
:1011600080FE51C0972CB61418F4960C9B18B62C20
:10117000862D8B196B1408F480E0B80EB61408F0B5
:1011800044C06B1884FE43C0B60180E390E00E9427
:10119000320982FE09C088E590E081FC02C088E740
:1011A00090E0B6010E9432097914E0F15E018FEF00
:1011B000A81AB80A7A9482E0882E912C8C0E9D1E73
:1011C000870C911CF40182914F01B60190E00E94BE
:1011D00032098A149B04B1F711CFB92C882EB5CFF0
:1011E00082FC02C0B394BACFB394B394B7CFB92CF6
:1011F000882EE5CEB60180E290E00E943209A394E9
:10120000A614C0F3B5CFAB2CFBCF612CBBCF882D80
:10121000867851F280E281FC8BE287FC8DE2B60198
:1012200090E0C0CFB60180E390E00E9432099A942A
:10123000BBCF8FEF9FEF65CFFC01059061507040F1
:101240000110D8F7809590958E0F9F1F0895FC018F
:101250006150704001900110D8F7809590958E0FE5
:101260009F1F08950F931F93CF93DF93182F092F7C
:10127000EB018B8181FD09C00FEF1FEF812F902FB4
:10128000DF91CF911F910F91089582FF14C02E819D
:101290003F818C819D81281739073CF4E881F981D1
:1012A000CF0101968883998310838E819F81019657
:1012B0008E839F83E3CFE885F985812F0995892B5C
:1012C000A1F3DACFFA01AA27283051F1203181F1B8
:1012D000E8946F936E7F6E5F7F4F8F4F9F4FAF4F3E
:1012E000B1E03ED0B4E03CD0670F781F891F9A1F51
:1012F000A11D680F791F8A1F911DA11D6A0F711D05
:10130000811D911DA11D20D009F468943F912AE010
:10131000269F11243019305D3193DEF6CF010895F8
:10132000462F4770405D4193B3E00FD0C9F7F6CF29
:10133000462F4F70405D4A3318F0495D31FD4052F1
:10134000419302D0A9F7EACFB4E0A6959795879587
:1013500077956795BA95C9F7009761057105089566
:101360009B01AC010A2E0694579547953795279512
:10137000BA95C9F7620F731F841F951FA01D0895AA
:1013800090958095709561957F4F8F4F9F4F0895F1
:101390002F923F924F925F926F927F928F929F9285
:1013A000AF92BF92CF92DF92EF92FF920F931F9373
:1013B000CF93DF93CDB7DEB7CA1BDB0B0FB6F89424
:1013C000DEBF0FBECDBF09942A88398848885F8464
:1013D0006E847D848C849B84AA84B984C884DF80D5
:1013E000EE80FD800C811B81AA81B981CE0FD11DB9
:1013F0000FB6F894DEBF0FBECDBFED010895F8948F
:02140000FFCF1C
:101402000129012B012E01253032643A2530326444
:101412003A2530326400253032642E253032642E73
:101422002530346400202020002F002F2D002F2D86
:021432005C005C
:00000001FF
